{
  "_format": "hh-sol-artifact-1",
  "contractName": "BenNFT",
  "sourceName": "contracts/BenNFT.sol",
  "abi": [
    {
      "inputs": [],
      "stateMutability": "nonpayable",
      "type": "constructor"
    },
    {
      "inputs": [],
      "name": "ApprovalCallerNotOwnerNorApproved",
      "type": "error"
    },
    {
      "inputs": [],
      "name": "ApprovalQueryForNonexistentToken",
      "type": "error"
    },
    {
      "inputs": [],
      "name": "BalanceQueryForZeroAddress",
      "type": "error"
    },
    {
      "inputs": [],
      "name": "MintERC2309QuantityExceedsLimit",
      "type": "error"
    },
    {
      "inputs": [],
      "name": "MintToZeroAddress",
      "type": "error"
    },
    {
      "inputs": [],
      "name": "MintZeroQuantity",
      "type": "error"
    },
    {
      "inputs": [],
      "name": "OwnerQueryForNonexistentToken",
      "type": "error"
    },
    {
      "inputs": [],
      "name": "OwnershipNotInitializedForExtraData",
      "type": "error"
    },
    {
      "inputs": [],
      "name": "TransferCallerNotOwnerNorApproved",
      "type": "error"
    },
    {
      "inputs": [],
      "name": "TransferFromIncorrectOwner",
      "type": "error"
    },
    {
      "inputs": [],
      "name": "TransferToNonERC721ReceiverImplementer",
      "type": "error"
    },
    {
      "inputs": [],
      "name": "TransferToZeroAddress",
      "type": "error"
    },
    {
      "inputs": [],
      "name": "URIQueryForNonexistentToken",
      "type": "error"
    },
    {
      "anonymous": false,
      "inputs": [
        {
          "indexed": true,
          "internalType": "address",
          "name": "owner",
          "type": "address"
        },
        {
          "indexed": true,
          "internalType": "address",
          "name": "approved",
          "type": "address"
        },
        {
          "indexed": true,
          "internalType": "uint256",
          "name": "tokenId",
          "type": "uint256"
        }
      ],
      "name": "Approval",
      "type": "event"
    },
    {
      "anonymous": false,
      "inputs": [
        {
          "indexed": true,
          "internalType": "address",
          "name": "owner",
          "type": "address"
        },
        {
          "indexed": true,
          "internalType": "address",
          "name": "operator",
          "type": "address"
        },
        {
          "indexed": false,
          "internalType": "bool",
          "name": "approved",
          "type": "bool"
        }
      ],
      "name": "ApprovalForAll",
      "type": "event"
    },
    {
      "anonymous": false,
      "inputs": [
        {
          "indexed": true,
          "internalType": "uint256",
          "name": "fromTokenId",
          "type": "uint256"
        },
        {
          "indexed": false,
          "internalType": "uint256",
          "name": "toTokenId",
          "type": "uint256"
        },
        {
          "indexed": true,
          "internalType": "address",
          "name": "from",
          "type": "address"
        },
        {
          "indexed": true,
          "internalType": "address",
          "name": "to",
          "type": "address"
        }
      ],
      "name": "ConsecutiveTransfer",
      "type": "event"
    },
    {
      "anonymous": false,
      "inputs": [
        {
          "indexed": true,
          "internalType": "address",
          "name": "from",
          "type": "address"
        },
        {
          "indexed": true,
          "internalType": "address",
          "name": "to",
          "type": "address"
        },
        {
          "indexed": true,
          "internalType": "uint256",
          "name": "tokenId",
          "type": "uint256"
        }
      ],
      "name": "Transfer",
      "type": "event"
    },
    {
      "inputs": [
        {
          "internalType": "address",
          "name": "to",
          "type": "address"
        },
        {
          "internalType": "uint256",
          "name": "tokenId",
          "type": "uint256"
        }
      ],
      "name": "approve",
      "outputs": [],
      "stateMutability": "payable",
      "type": "function"
    },
    {
      "inputs": [
        {
          "internalType": "address",
          "name": "owner",
          "type": "address"
        }
      ],
      "name": "balanceOf",
      "outputs": [
        {
          "internalType": "uint256",
          "name": "",
          "type": "uint256"
        }
      ],
      "stateMutability": "view",
      "type": "function"
    },
    {
      "inputs": [
        {
          "internalType": "uint256",
          "name": "tokenId",
          "type": "uint256"
        }
      ],
      "name": "getApproved",
      "outputs": [
        {
          "internalType": "address",
          "name": "",
          "type": "address"
        }
      ],
      "stateMutability": "view",
      "type": "function"
    },
    {
      "inputs": [
        {
          "internalType": "address",
          "name": "owner",
          "type": "address"
        },
        {
          "internalType": "address",
          "name": "operator",
          "type": "address"
        }
      ],
      "name": "isApprovedForAll",
      "outputs": [
        {
          "internalType": "bool",
          "name": "",
          "type": "bool"
        }
      ],
      "stateMutability": "view",
      "type": "function"
    },
    {
      "inputs": [],
      "name": "maxQuantity",
      "outputs": [
        {
          "internalType": "uint256",
          "name": "",
          "type": "uint256"
        }
      ],
      "stateMutability": "view",
      "type": "function"
    },
    {
      "inputs": [
        {
          "internalType": "uint256",
          "name": "quantity",
          "type": "uint256"
        }
      ],
      "name": "mint",
      "outputs": [],
      "stateMutability": "payable",
      "type": "function"
    },
    {
      "inputs": [],
      "name": "name",
      "outputs": [
        {
          "internalType": "string",
          "name": "",
          "type": "string"
        }
      ],
      "stateMutability": "view",
      "type": "function"
    },
    {
      "inputs": [
        {
          "internalType": "uint256",
          "name": "tokenId",
          "type": "uint256"
        }
      ],
      "name": "ownerOf",
      "outputs": [
        {
          "internalType": "address",
          "name": "",
          "type": "address"
        }
      ],
      "stateMutability": "view",
      "type": "function"
    },
    {
      "inputs": [],
      "name": "promptDescription",
      "outputs": [
        {
          "internalType": "string",
          "name": "",
          "type": "string"
        }
      ],
      "stateMutability": "pure",
      "type": "function"
    },
    {
      "inputs": [
        {
          "internalType": "address",
          "name": "from",
          "type": "address"
        },
        {
          "internalType": "address",
          "name": "to",
          "type": "address"
        },
        {
          "internalType": "uint256",
          "name": "tokenId",
          "type": "uint256"
        }
      ],
      "name": "safeTransferFrom",
      "outputs": [],
      "stateMutability": "payable",
      "type": "function"
    },
    {
      "inputs": [
        {
          "internalType": "address",
          "name": "from",
          "type": "address"
        },
        {
          "internalType": "address",
          "name": "to",
          "type": "address"
        },
        {
          "internalType": "uint256",
          "name": "tokenId",
          "type": "uint256"
        },
        {
          "internalType": "bytes",
          "name": "_data",
          "type": "bytes"
        }
      ],
      "name": "safeTransferFrom",
      "outputs": [],
      "stateMutability": "payable",
      "type": "function"
    },
    {
      "inputs": [
        {
          "internalType": "address",
          "name": "operator",
          "type": "address"
        },
        {
          "internalType": "bool",
          "name": "approved",
          "type": "bool"
        }
      ],
      "name": "setApprovalForAll",
      "outputs": [],
      "stateMutability": "nonpayable",
      "type": "function"
    },
    {
      "inputs": [
        {
          "internalType": "bytes4",
          "name": "interfaceId",
          "type": "bytes4"
        }
      ],
      "name": "supportsInterface",
      "outputs": [
        {
          "internalType": "bool",
          "name": "",
          "type": "bool"
        }
      ],
      "stateMutability": "view",
      "type": "function"
    },
    {
      "inputs": [],
      "name": "symbol",
      "outputs": [
        {
          "internalType": "string",
          "name": "",
          "type": "string"
        }
      ],
      "stateMutability": "view",
      "type": "function"
    },
    {
      "inputs": [
        {
          "internalType": "uint256",
          "name": "tokenId",
          "type": "uint256"
        }
      ],
      "name": "tokenURI",
      "outputs": [
        {
          "internalType": "string",
          "name": "",
          "type": "string"
        }
      ],
      "stateMutability": "view",
      "type": "function"
    },
    {
      "inputs": [],
      "name": "totalSupply",
      "outputs": [
        {
          "internalType": "uint256",
          "name": "",
          "type": "uint256"
        }
      ],
      "stateMutability": "view",
      "type": "function"
    },
    {
      "inputs": [
        {
          "internalType": "address",
          "name": "from",
          "type": "address"
        },
        {
          "internalType": "address",
          "name": "to",
          "type": "address"
        },
        {
          "internalType": "uint256",
          "name": "tokenId",
          "type": "uint256"
        }
      ],
      "name": "transferFrom",
      "outputs": [],
      "stateMutability": "payable",
      "type": "function"
    }
  ],
  "bytecode": "0x608060405260056008553480156200001657600080fd5b506040518060400160405280600681526020017f42656e4e465400000000000000000000000000000000000000000000000000008152506040518060400160405280600481526020017f424e465400000000000000000000000000000000000000000000000000000000815250816002908162000094919062000344565b508060039081620000a6919062000344565b50620000b7620000c560201b60201c565b60008190555050506200042b565b600090565b600081519050919050565b7f4e487b7100000000000000000000000000000000000000000000000000000000600052604160045260246000fd5b7f4e487b7100000000000000000000000000000000000000000000000000000000600052602260045260246000fd5b600060028204905060018216806200014c57607f821691505b60208210810362000162576200016162000104565b5b50919050565b60008190508160005260206000209050919050565b60006020601f8301049050919050565b600082821b905092915050565b600060088302620001cc7fffffffffffffffffffffffffffffffffffffffffffffffffffffffffffffffff826200018d565b620001d886836200018d565b95508019841693508086168417925050509392505050565b6000819050919050565b6000819050919050565b6000620002256200021f6200021984620001f0565b620001fa565b620001f0565b9050919050565b6000819050919050565b620002418362000204565b6200025962000250826200022c565b8484546200019a565b825550505050565b600090565b6200027062000261565b6200027d81848462000236565b505050565b5b81811015620002a5576200029960008262000266565b60018101905062000283565b5050565b601f821115620002f457620002be8162000168565b620002c9846200017d565b81016020851015620002d9578190505b620002f1620002e8856200017d565b83018262000282565b50505b505050565b600082821c905092915050565b60006200031960001984600802620002f9565b1980831691505092915050565b600062000334838362000306565b9150826002028217905092915050565b6200034f82620000ca565b67ffffffffffffffff8111156200036b576200036a620000d5565b5b62000377825462000133565b62000384828285620002a9565b600060209050601f831160018114620003bc5760008415620003a7578287015190505b620003b3858262000326565b86555062000423565b601f198416620003cc8662000168565b60005b82811015620003f657848901518255600182019150602085019450602081019050620003cf565b8683101562000416578489015162000412601f89168262000306565b8355505b6001600288020188555050505b505050505050565b611d3e806200043b6000396000f3fe6080604052600436106100fe5760003560e01c806370a0823111610095578063a22cb46511610064578063a22cb46514610313578063b88d4fde1461033c578063c87b56dd14610358578063e640cf7d14610395578063e985e9c5146103c0576100fe565b806370a082311461026457806395363731146102a157806395d89b41146102cc578063a0712d68146102f7576100fe565b806318160ddd116100d157806318160ddd146101c457806323b872dd146101ef57806342842e0e1461020b5780636352211e14610227576100fe565b806301ffc9a71461010357806306fdde0314610140578063081812fc1461016b578063095ea7b3146101a8575b600080fd5b34801561010f57600080fd5b5061012a600480360381019061012591906114d5565b6103fd565b604051610137919061151d565b60405180910390f35b34801561014c57600080fd5b5061015561048f565b60405161016291906115c8565b60405180910390f35b34801561017757600080fd5b50610192600480360381019061018d9190611620565b610521565b60405161019f919061168e565b60405180910390f35b6101c260048036038101906101bd91906116d5565b6105a0565b005b3480156101d057600080fd5b506101d96106e4565b6040516101e69190611724565b60405180910390f35b6102096004803603810190610204919061173f565b6106fb565b005b6102256004803603810190610220919061173f565b610a1d565b005b34801561023357600080fd5b5061024e60048036038101906102499190611620565b610a3d565b60405161025b919061168e565b60405180910390f35b34801561027057600080fd5b5061028b60048036038101906102869190611792565b610a4f565b6040516102989190611724565b60405180910390f35b3480156102ad57600080fd5b506102b6610b07565b6040516102c391906115c8565b60405180910390f35b3480156102d857600080fd5b506102e1610b27565b6040516102ee91906115c8565b60405180910390f35b610311600480360381019061030c9190611620565b610bb9565b005b34801561031f57600080fd5b5061033a600480360381019061033591906117eb565b610c1d565b005b61035660048036038101906103519190611960565b610d28565b005b34801561036457600080fd5b5061037f600480360381019061037a9190611620565b610d9b565b60405161038c91906115c8565b60405180910390f35b3480156103a157600080fd5b506103aa610e39565b6040516103b79190611724565b60405180910390f35b3480156103cc57600080fd5b506103e760048036038101906103e291906119e3565b610e3f565b6040516103f4919061151d565b60405180910390f35b60006301ffc9a760e01b827bffffffffffffffffffffffffffffffffffffffffffffffffffffffff1916148061045857506380ac58cd60e01b827bffffffffffffffffffffffffffffffffffffffffffffffffffffffff1916145b806104885750635b5e139f60e01b827bffffffffffffffffffffffffffffffffffffffffffffffffffffffff1916145b9050919050565b60606002805461049e90611a52565b80601f01602080910402602001604051908101604052809291908181526020018280546104ca90611a52565b80156105175780601f106104ec57610100808354040283529160200191610517565b820191906000526020600020905b8154815290600101906020018083116104fa57829003601f168201915b5050505050905090565b600061052c82610ed3565b610562576040517fcf4700e400000000000000000000000000000000000000000000000000000000815260040160405180910390fd5b6006600083815260200190815260200160002060000160009054906101000a900473ffffffffffffffffffffffffffffffffffffffff169050919050565b60006105ab82610a3d565b90508073ffffffffffffffffffffffffffffffffffffffff166105cc610f32565b73ffffffffffffffffffffffffffffffffffffffff161461062f576105f8816105f3610f32565b610e3f565b61062e576040517fcfb3b94200000000000000000000000000000000000000000000000000000000815260040160405180910390fd5b5b826006600084815260200190815260200160002060000160006101000a81548173ffffffffffffffffffffffffffffffffffffffff021916908373ffffffffffffffffffffffffffffffffffffffff160217905550818373ffffffffffffffffffffffffffffffffffffffff168273ffffffffffffffffffffffffffffffffffffffff167f8c5be1e5ebec7d5bd14f71427d1e84f3dd0314c0f7b2291e5b200ac8c7c3b92560405160405180910390a4505050565b60006106ee610f3a565b6001546000540303905090565b600061070682610f3f565b90508373ffffffffffffffffffffffffffffffffffffffff168173ffffffffffffffffffffffffffffffffffffffff161461076d576040517fa114810000000000000000000000000000000000000000000000000000000000815260040160405180910390fd5b6000806107798461100b565b9150915061078f818761078a610f32565b611032565b6107db576107a48661079f610f32565b610e3f565b6107da576040517f59c896be00000000000000000000000000000000000000000000000000000000815260040160405180910390fd5b5b600073ffffffffffffffffffffffffffffffffffffffff168573ffffffffffffffffffffffffffffffffffffffff1603610841576040517fea553b3400000000000000000000000000000000000000000000000000000000815260040160405180910390fd5b61084e8686866001611076565b801561085957600082555b600560008773ffffffffffffffffffffffffffffffffffffffff1673ffffffffffffffffffffffffffffffffffffffff168152602001908152602001600020600081546001900391905081905550600560008673ffffffffffffffffffffffffffffffffffffffff1673ffffffffffffffffffffffffffffffffffffffff16815260200190815260200160002060008154600101919050819055506109278561090388888761107c565b7c0200000000000000000000000000000000000000000000000000000000176110a4565b600460008681526020019081526020016000208190555060007c02000000000000000000000000000000000000000000000000000000008416036109ad57600060018501905060006004600083815260200190815260200160002054036109ab5760005481146109aa578360046000838152602001908152602001600020819055505b5b505b838573ffffffffffffffffffffffffffffffffffffffff168773ffffffffffffffffffffffffffffffffffffffff167fddf252ad1be2c89b69c2b068fc378daa952ba7f163c4a11628f55a4df523b3ef60405160405180910390a4610a1586868660016110cf565b505050505050565b610a3883838360405180602001604052806000815250610d28565b505050565b6000610a4882610f3f565b9050919050565b60008073ffffffffffffffffffffffffffffffffffffffff168273ffffffffffffffffffffffffffffffffffffffff1603610ab6576040517f8f4eb60400000000000000000000000000000000000000000000000000000000815260040160405180910390fd5b67ffffffffffffffff600560008473ffffffffffffffffffffffffffffffffffffffff1673ffffffffffffffffffffffffffffffffffffffff16815260200190815260200160002054169050919050565b6060604051806060016040528060228152602001611ce760229139905090565b606060038054610b3690611a52565b80601f0160208091040260200160405190810160405280929190818152602001828054610b6290611a52565b8015610baf5780601f10610b8457610100808354040283529160200191610baf565b820191906000526020600020905b815481529060010190602001808311610b9257829003601f168201915b5050505050905090565b60085481610bc56106e4565b610bcf9190611ab2565b1115610c10576040517f08c379a0000000000000000000000000000000000000000000000000000000008152600401610c0790611b32565b60405180910390fd5b610c1a33826110d5565b50565b8060076000610c2a610f32565b73ffffffffffffffffffffffffffffffffffffffff1673ffffffffffffffffffffffffffffffffffffffff16815260200190815260200160002060008473ffffffffffffffffffffffffffffffffffffffff1673ffffffffffffffffffffffffffffffffffffffff16815260200190815260200160002060006101000a81548160ff0219169083151502179055508173ffffffffffffffffffffffffffffffffffffffff16610cd7610f32565b73ffffffffffffffffffffffffffffffffffffffff167f17307eab39ab6107e8899845ad3d59bd9653f200f220920489ca2b5937696c3183604051610d1c919061151d565b60405180910390a35050565b610d338484846106fb565b60008373ffffffffffffffffffffffffffffffffffffffff163b14610d9557610d5e84848484611290565b610d94576040517fd1a57ed600000000000000000000000000000000000000000000000000000000815260040160405180910390fd5b5b50505050565b6060610da682610ed3565b610ddc576040517fa14c4b5000000000000000000000000000000000000000000000000000000000815260040160405180910390fd5b6000610de66113e0565b90506000815103610e065760405180602001604052806000815250610e31565b80610e1084611400565b604051602001610e21929190611b8e565b6040516020818303038152906040525b915050919050565b60085481565b6000600760008473ffffffffffffffffffffffffffffffffffffffff1673ffffffffffffffffffffffffffffffffffffffff16815260200190815260200160002060008373ffffffffffffffffffffffffffffffffffffffff1673ffffffffffffffffffffffffffffffffffffffff16815260200190815260200160002060009054906101000a900460ff16905092915050565b600081610ede610f3a565b11158015610eed575060005482105b8015610f2b575060007c0100000000000000000000000000000000000000000000000000000000600460008581526020019081526020016000205416145b9050919050565b600033905090565b600090565b60008082905080610f4e610f3a565b11610fd457600054811015610fd35760006004600083815260200190815260200160002054905060007c0100000000000000000000000000000000000000000000000000000000821603610fd1575b60008103610fc7576004600083600190039350838152602001908152602001600020549050610f9d565b8092505050611006565b505b5b6040517fdf2d9b4200000000000000000000000000000000000000000000000000000000815260040160405180910390fd5b919050565b60008060006006600085815260200190815260200160002090508092508254915050915091565b600073ffffffffffffffffffffffffffffffffffffffff8316925073ffffffffffffffffffffffffffffffffffffffff821691508382148383141790509392505050565b50505050565b60008060e883901c905060e8611093868684611450565b62ffffff16901b9150509392505050565b600073ffffffffffffffffffffffffffffffffffffffff83169250814260a01b178317905092915050565b50505050565b60008054905060008203611115576040517fb562e8dd00000000000000000000000000000000000000000000000000000000815260040160405180910390fd5b6111226000848385611076565b600160406001901b178202600560008573ffffffffffffffffffffffffffffffffffffffff1673ffffffffffffffffffffffffffffffffffffffff168152602001908152602001600020600082825401925050819055506111998361118a600086600061107c565b61119385611459565b176110a4565b6004600083815260200190815260200160002081905550600080838301905073ffffffffffffffffffffffffffffffffffffffff85169150828260007fddf252ad1be2c89b69c2b068fc378daa952ba7f163c4a11628f55a4df523b3ef600080a4600183015b81811461123a57808360007fddf252ad1be2c89b69c2b068fc378daa952ba7f163c4a11628f55a4df523b3ef600080a46001810190506111ff565b5060008203611275576040517f2e07630000000000000000000000000000000000000000000000000000000000815260040160405180910390fd5b80600081905550505061128b60008483856110cf565b505050565b60008373ffffffffffffffffffffffffffffffffffffffff1663150b7a026112b6610f32565b8786866040518563ffffffff1660e01b81526004016112d89493929190611c07565b6020604051808303816000875af192505050801561131457506040513d601f19601f820116820180604052508101906113119190611c68565b60015b61138d573d8060008114611344576040519150601f19603f3d011682016040523d82523d6000602084013e611349565b606091505b506000815103611385576040517fd1a57ed600000000000000000000000000000000000000000000000000000000815260040160405180910390fd5b805181602001fd5b63150b7a0260e01b7bffffffffffffffffffffffffffffffffffffffffffffffffffffffff1916817bffffffffffffffffffffffffffffffffffffffffffffffffffffffff191614915050949350505050565b6060604051806080016040528060518152602001611c9660519139905090565b606060a060405101806040526020810391506000825281835b60011561143b57600184039350600a81066030018453600a8104905080611419575b50828103602084039350808452505050919050565b60009392505050565b60006001821460e11b9050919050565b6000604051905090565b600080fd5b600080fd5b60007fffffffff0000000000000000000000000000000000000000000000000000000082169050919050565b6114b28161147d565b81146114bd57600080fd5b50565b6000813590506114cf816114a9565b92915050565b6000602082840312156114eb576114ea611473565b5b60006114f9848285016114c0565b91505092915050565b60008115159050919050565b61151781611502565b82525050565b6000602082019050611532600083018461150e565b92915050565b600081519050919050565b600082825260208201905092915050565b60005b83811015611572578082015181840152602081019050611557565b60008484015250505050565b6000601f19601f8301169050919050565b600061159a82611538565b6115a48185611543565b93506115b4818560208601611554565b6115bd8161157e565b840191505092915050565b600060208201905081810360008301526115e2818461158f565b905092915050565b6000819050919050565b6115fd816115ea565b811461160857600080fd5b50565b60008135905061161a816115f4565b92915050565b60006020828403121561163657611635611473565b5b60006116448482850161160b565b91505092915050565b600073ffffffffffffffffffffffffffffffffffffffff82169050919050565b60006116788261164d565b9050919050565b6116888161166d565b82525050565b60006020820190506116a3600083018461167f565b92915050565b6116b28161166d565b81146116bd57600080fd5b50565b6000813590506116cf816116a9565b92915050565b600080604083850312156116ec576116eb611473565b5b60006116fa858286016116c0565b925050602061170b8582860161160b565b9150509250929050565b61171e816115ea565b82525050565b60006020820190506117396000830184611715565b92915050565b60008060006060848603121561175857611757611473565b5b6000611766868287016116c0565b9350506020611777868287016116c0565b92505060406117888682870161160b565b9150509250925092565b6000602082840312156117a8576117a7611473565b5b60006117b6848285016116c0565b91505092915050565b6117c881611502565b81146117d357600080fd5b50565b6000813590506117e5816117bf565b92915050565b6000806040838503121561180257611801611473565b5b6000611810858286016116c0565b9250506020611821858286016117d6565b9150509250929050565b600080fd5b600080fd5b7f4e487b7100000000000000000000000000000000000000000000000000000000600052604160045260246000fd5b61186d8261157e565b810181811067ffffffffffffffff8211171561188c5761188b611835565b5b80604052505050565b600061189f611469565b90506118ab8282611864565b919050565b600067ffffffffffffffff8211156118cb576118ca611835565b5b6118d48261157e565b9050602081019050919050565b82818337600083830152505050565b60006119036118fe846118b0565b611895565b90508281526020810184848401111561191f5761191e611830565b5b61192a8482856118e1565b509392505050565b600082601f8301126119475761194661182b565b5b81356119578482602086016118f0565b91505092915050565b6000806000806080858703121561197a57611979611473565b5b6000611988878288016116c0565b9450506020611999878288016116c0565b93505060406119aa8782880161160b565b925050606085013567ffffffffffffffff8111156119cb576119ca611478565b5b6119d787828801611932565b91505092959194509250565b600080604083850312156119fa576119f9611473565b5b6000611a08858286016116c0565b9250506020611a19858286016116c0565b9150509250929050565b7f4e487b7100000000000000000000000000000000000000000000000000000000600052602260045260246000fd5b60006002820490506001821680611a6a57607f821691505b602082108103611a7d57611a7c611a23565b5b50919050565b7f4e487b7100000000000000000000000000000000000000000000000000000000600052601160045260246000fd5b6000611abd826115ea565b9150611ac8836115ea565b9250828201905080821115611ae057611adf611a83565b5b92915050565b7f596f752063616e206e6f74206d696e74206d6f7265207468616e203500000000600082015250565b6000611b1c601c83611543565b9150611b2782611ae6565b602082019050919050565b60006020820190508181036000830152611b4b81611b0f565b9050919050565b600081905092915050565b6000611b6882611538565b611b728185611b52565b9350611b82818560208601611554565b80840191505092915050565b6000611b9a8285611b5d565b9150611ba68284611b5d565b91508190509392505050565b600081519050919050565b600082825260208201905092915050565b6000611bd982611bb2565b611be38185611bbd565b9350611bf3818560208601611554565b611bfc8161157e565b840191505092915050565b6000608082019050611c1c600083018761167f565b611c29602083018661167f565b611c366040830185611715565b8181036060830152611c488184611bce565b905095945050505050565b600081519050611c62816114a9565b92915050565b600060208284031215611c7e57611c7d611473565b5b6000611c8c84828501611c53565b9150509291505056fe68747470733a2f2f676174657761792e70696e6174612e636c6f75642f697066732f516d62463151446b433854546745434b367a6a6165636b76463843764836757170584d69535a746f3333395431462f67656e65726174696e6720696d616765206f6620612062656e313020667574757265a26469706673582212206635930ad8ed6065a9969a8e5dfa916ce8119d23e1810946a11d56014ecc86af64736f6c63430008120033",
  "linkReferences": {},
  "deployedLinkReferences": {}
}